{
  "contractName": "idWallet",
  "abi": [
    {
      "anonymous": false,
      "inputs": [
        {
          "indexed": false,
          "internalType": "string",
          "name": "msg",
          "type": "string"
        },
        {
          "indexed": false,
          "internalType": "string",
          "name": "did",
          "type": "string"
        },
        {
          "indexed": false,
          "internalType": "string",
          "name": "sid",
          "type": "string"
        }
      ],
      "name": "DataLog",
      "type": "event"
    },
    {
      "inputs": [],
      "name": "urlRef",
      "outputs": [
        {
          "internalType": "string",
          "name": "did",
          "type": "string"
        },
        {
          "internalType": "string",
          "name": "streamID",
          "type": "string"
        }
      ],
      "stateMutability": "view",
      "type": "function",
      "constant": true
    },
    {
      "inputs": [
        {
          "internalType": "address",
          "name": "",
          "type": "address"
        }
      ],
      "name": "userRefID",
      "outputs": [
        {
          "internalType": "string",
          "name": "did",
          "type": "string"
        },
        {
          "internalType": "string",
          "name": "streamID",
          "type": "string"
        }
      ],
      "stateMutability": "view",
      "type": "function",
      "constant": true
    },
    {
      "inputs": [
        {
          "internalType": "address",
          "name": "x",
          "type": "address"
        }
      ],
      "name": "set",
      "outputs": [],
      "stateMutability": "nonpayable",
      "type": "function"
    },
    {
      "inputs": [],
      "name": "get",
      "outputs": [
        {
          "internalType": "address",
          "name": "",
          "type": "address"
        }
      ],
      "stateMutability": "view",
      "type": "function",
      "constant": true
    },
    {
      "inputs": [
        {
          "internalType": "address",
          "name": "ethAcc",
          "type": "address"
        },
        {
          "internalType": "string",
          "name": "_did",
          "type": "string"
        },
        {
          "internalType": "string",
          "name": "_streamID",
          "type": "string"
        }
      ],
      "name": "saveDID",
      "outputs": [],
      "stateMutability": "nonpayable",
      "type": "function"
    },
    {
      "inputs": [
        {
          "internalType": "address",
          "name": "ethAcc",
          "type": "address"
        }
      ],
      "name": "retrieveDID",
      "outputs": [
        {
          "internalType": "string",
          "name": "",
          "type": "string"
        },
        {
          "internalType": "string",
          "name": "",
          "type": "string"
        }
      ],
      "stateMutability": "nonpayable",
      "type": "function"
    }
  ],
  "bytecode": "0x608060405234801561001057600080fd5b50611126806100206000396000f3fe608060405234801561001057600080fd5b50600436106100625760003560e01c80632801617e146100675780635e856200146100ab5780636d4ce63c146101d45780637aa5771214610208578063a46f3baa146102f7578063ee1b0c8914610420575b600080fd5b6100a96004803603602081101561007d57600080fd5b81019080803573ffffffffffffffffffffffffffffffffffffffff169060200190929190505050610592565b005b6100ed600480360360208110156100c157600080fd5b81019080803573ffffffffffffffffffffffffffffffffffffffff1690602001909291905050506105d6565b604051808060200180602001838103835285818151815260200191508051906020019080838360005b83811015610131578082015181840152602081019050610116565b50505050905090810190601f16801561015e5780820380516001836020036101000a031916815260200191505b50838103825284818151815260200191508051906020019080838360005b8381101561019757808201518184015260208101905061017c565b50505050905090810190601f1680156101c45780820380516001836020036101000a031916815260200191505b5094505050505060405180910390f35b6101dc610a3f565b604051808273ffffffffffffffffffffffffffffffffffffffff16815260200191505060405180910390f35b610210610a69565b604051808060200180602001838103835285818151815260200191508051906020019080838360005b83811015610254578082015181840152602081019050610239565b50505050905090810190601f1680156102815780820380516001836020036101000a031916815260200191505b50838103825284818151815260200191508051906020019080838360005b838110156102ba57808201518184015260208101905061029f565b50505050905090810190601f1680156102e75780820380516001836020036101000a031916815260200191505b5094505050505060405180910390f35b6103396004803603602081101561030d57600080fd5b81019080803573ffffffffffffffffffffffffffffffffffffffff169060200190929190505050610bab565b604051808060200180602001838103835285818151815260200191508051906020019080838360005b8381101561037d578082015181840152602081019050610362565b50505050905090810190601f1680156103aa5780820380516001836020036101000a031916815260200191505b50838103825284818151815260200191508051906020019080838360005b838110156103e35780820151818401526020810190506103c8565b50505050905090810190601f1680156104105780820380516001836020036101000a031916815260200191505b5094505050505060405180910390f35b6105906004803603606081101561043657600080fd5b81019080803573ffffffffffffffffffffffffffffffffffffffff1690602001909291908035906020019064010000000081111561047357600080fd5b82018360208201111561048557600080fd5b803590602001918460018302840111640100000000831117156104a757600080fd5b91908080601f016020809104026020016040519081016040528093929190818152602001838380828437600081840152601f19601f8201169050808301925050505050505091929192908035906020019064010000000081111561050a57600080fd5b82018360208201111561051c57600080fd5b8035906020019184600183028401116401000000008311171561053e57600080fd5b91908080601f016020809104026020016040519081016040528093929190818152602001838380828437600081840152601f19601f820116905080830192505050505050509192919290505050610cff565b005b80600360006101000a81548173ffffffffffffffffffffffffffffffffffffffff021916908373ffffffffffffffffffffffffffffffffffffffff16021790555050565b606080600073ffffffffffffffffffffffffffffffffffffffff163373ffffffffffffffffffffffffffffffffffffffff16141561067c576040517f08c379a000000000000000000000000000000000000000000000000000000000815260040180806020018281038252600c8152602001807f496e76616c69642064756465000000000000000000000000000000000000000081525060200191505060405180910390fd5b7fdf9a12f88241751d98824bea840dd397c54d748807c7f2ef407b6d65f653abeb600260008573ffffffffffffffffffffffffffffffffffffffff1673ffffffffffffffffffffffffffffffffffffffff168152602001908152602001600020600001600260008673ffffffffffffffffffffffffffffffffffffffff1673ffffffffffffffffffffffffffffffffffffffff168152602001908152602001600020600101604051808060200180602001806020018481038452600d8152602001807f72657472696576656420444944000000000000000000000000000000000000008152506020018481038352868181546001816001161561010002031660029004815260200191508054600181600116156101000203166002900480156107e65780601f106107bb576101008083540402835291602001916107e6565b820191906000526020600020905b8154815290600101906020018083116107c957829003601f168201915b50508481038252858181546001816001161561010002031660029004815260200191508054600181600116156101000203166002900480156108695780601f1061083e57610100808354040283529160200191610869565b820191906000526020600020905b81548152906001019060200180831161084c57829003601f168201915b50509550505050505060405180910390a1600260008473ffffffffffffffffffffffffffffffffffffffff1673ffffffffffffffffffffffffffffffffffffffff168152602001908152602001600020600001600260008573ffffffffffffffffffffffffffffffffffffffff1673ffffffffffffffffffffffffffffffffffffffff168152602001908152602001600020600101818054600181600116156101000203166002900480601f0160208091040260200160405190810160405280929190818152602001828054600181600116156101000203166002900480156109935780601f1061096857610100808354040283529160200191610993565b820191906000526020600020905b81548152906001019060200180831161097657829003601f168201915b50505050509150808054600181600116156101000203166002900480601f016020809104026020016040519081016040528092919081815260200182805460018160011615610100020316600290048015610a2f5780601f10610a0457610100808354040283529160200191610a2f565b820191906000526020600020905b815481529060010190602001808311610a1257829003601f168201915b5050505050905091509150915091565b6000600360009054906101000a900473ffffffffffffffffffffffffffffffffffffffff16905090565b6000806000018054600181600116156101000203166002900480601f016020809104026020016040519081016040528092919081815260200182805460018160011615610100020316600290048015610b035780601f10610ad857610100808354040283529160200191610b03565b820191906000526020600020905b815481529060010190602001808311610ae657829003601f168201915b505050505090806001018054600181600116156101000203166002900480601f016020809104026020016040519081016040528092919081815260200182805460018160011615610100020316600290048015610ba15780601f10610b7657610100808354040283529160200191610ba1565b820191906000526020600020905b815481529060010190602001808311610b8457829003601f168201915b5050505050905082565b6002602052806000526040600020600091509050806000018054600181600116156101000203166002900480601f016020809104026020016040519081016040528092919081815260200182805460018160011615610100020316600290048015610c575780601f10610c2c57610100808354040283529160200191610c57565b820191906000526020600020905b815481529060010190602001808311610c3a57829003601f168201915b505050505090806001018054600181600116156101000203166002900480601f016020809104026020016040519081016040528092919081815260200182805460018160011615610100020316600290048015610cf55780601f10610cca57610100808354040283529160200191610cf5565b820191906000526020600020905b815481529060010190602001808311610cd857829003601f168201915b5050505050905082565b600073ffffffffffffffffffffffffffffffffffffffff163373ffffffffffffffffffffffffffffffffffffffff161415610da2576040517f08c379a000000000000000000000000000000000000000000000000000000000815260040180806020018281038252600c8152602001807f496e76616c69642064756465000000000000000000000000000000000000000081525060200191505060405180910390fd5b81600260008573ffffffffffffffffffffffffffffffffffffffff1673ffffffffffffffffffffffffffffffffffffffff1681526020019081526020016000206000019080519060200190610df8929190611053565b5080600260008573ffffffffffffffffffffffffffffffffffffffff1673ffffffffffffffffffffffffffffffffffffffff1681526020019081526020016000206001019080519060200190610e4f929190611053565b507fdf9a12f88241751d98824bea840dd397c54d748807c7f2ef407b6d65f653abeb600260008573ffffffffffffffffffffffffffffffffffffffff1673ffffffffffffffffffffffffffffffffffffffff168152602001908152602001600020600001600260008673ffffffffffffffffffffffffffffffffffffffff1673ffffffffffffffffffffffffffffffffffffffff16815260200190815260200160002060010160405180806020018060200180602001848103845260128152602001807f736176656420444944206f6e20636861696e0000000000000000000000000000815250602001848103835286818154600181600116156101000203166002900481526020019150805460018160011615610100020316600290048015610fba5780601f10610f8f57610100808354040283529160200191610fba565b820191906000526020600020905b815481529060010190602001808311610f9d57829003601f168201915b505084810382528581815460018160011615610100020316600290048152602001915080546001816001161561010002031660029004801561103d5780601f106110125761010080835404028352916020019161103d565b820191906000526020600020905b81548152906001019060200180831161102057829003601f168201915b50509550505050505060405180910390a1505050565b828054600181600116156101000203166002900490600052602060002090601f016020900481019282601f1061109457805160ff19168380011785556110c2565b828001600101855582156110c2579182015b828111156110c15782518255916020019190600101906110a6565b5b5090506110cf91906110d3565b5090565b5b808211156110ec5760008160009055506001016110d4565b509056fea2646970667358221220eabc7bd0c571d28e725f32373d8f1fd2fcb16d05e41ebde82823d51d8fa409f564736f6c634300060c0033",
  "immutableReferences": {},
  "source": "// SPDX-License-Identifier: MIT\npragma solidity >=0.4.22 <0.9.0;\n\n// import \"../node_modules/@openzeppelin/contracts/access/Ownable.sol\";\n\ncontract idWallet{\n\n//define struct for the user data\n\n  struct url {\n    //did reference to user profile data\n    string did;\n    string streamID;\n    // string fname;\n    // //string lname;\n    // uint age;\n    // //string homeAddress;\n    // uint phone;\n    //string email;\n  }\n\n//define an array of URL\n  url public urlRef;\n\n  // A person can have multiple ETH accounts, but only rootuser account.\n  // list of all friendly accounts linked a profile\n  // MAPPING A PROXY FOR DIDs -- needs more learning to to be implement, pushed for next version\n\n  // mapping (address => address) rootUser;\n  //  user to did mapping \n  mapping (address => url) public userRefID;\n\n// // define enums for request type - create, update, reset\n//   enum Request {\n//        Update,\n//        Read\n//     }\n\n\n  modifier validUser () {\n   //ensure user has a valid profile\n   //check nested mapping to see if valid user for this profile\n    // caller has a root user address attached to their address\n    require(msg.sender != address(0), 'Invalid dude');\n    _;\n  }\n\n  /////////////////////////////////\n  ////// SAMPLE CODE FOR TESTING FROM SIMPLE STORAGE\n  ////////////////////////////////\n  address storedData;\n\n  function set(address x) public {\n    storedData = x;\n  }\n\n  function get() public view returns (address) {\n    return storedData;\n  }\n\n  // fallback() external {\n  //     emit Log (\"Something went wrong\");\n  // }\n\n  event DataLog(string msg, string did, string sid);\n\n// //constructor init values \n// //   constructor() public {\n// // nothing at the moment\n//   // userProfile[msg.sender] = address[0];\n// //   }\n\n//   function adminTasks() public onlyOwner {\n//     //some potential tasks for admin\n//     // 1. transfer ownership\n//     // 2. renounce ownership\n//   }\n// // event log and emit when user data successfully updated\n\n// //////////////////////////////////////////////////////////\n// //// CHECK IF WE CAN IMPLEMENT MULTI SIG WALLETS HERE\n// /////////////////////////////////////////////////////////\n//   function mapToRoot (address _userAddress) public {\n//    //ensure user has a valid profile\n//    // Account requestor (msg.sender) should be the root user\n//     if(rootUser[msg.sender] == msg.sender) {\n//       // map account to root user\n//         rootUser[_userAddress] = msg.sender; \n//     }\n//   }\n//   // string retMsg; \n\n//   // function validateAccount() external view validUser() returns (string calldata retMsg) {\n//   //   retMsg = \"OK Valid\";\n//   //   // return (retMsg);\n//   // }\n\n//   // function setupRootUser(address userAddress) public onlyOwner validUser(){\n//     // Root user access is granted by contract owner, if one doesnt exist\n//   function setupRootUser(address userAddress) public onlyOwner returns (string memory) {\n//     string memory retString;\n//     if (rootUser[userAddress] != address(0))\n//     {\n//         rootUser[userAddress] = userAddress;\n//         retString = \"Added OK\";\n//     }\n//     // verify root user already has an entry\n//     else if(rootUser[userAddress] == userAddress)\n//     {\n//         emit Log(\"Error - User exists\");\n//         retString = \"Error - User exists\";\n//     }\n//     // For safety log invalid update attempts\n//     else {\n//         emit Log(\"Error - Invalid access request\");\n//         retString = \"Error - Invalid access request\";\n//     }\n//     return retString;\n//   }\n\n// // For a valid root user, update their profile details\n//   // function updateProfile(uint _age, uint _phone, string memory _name) payable public validUser(msg.sender) {\n\n//   function updateProfile(uint _age, uint _phone, string memory _name) payable public {\n\n//     // require(if this role has admin then allow this function to execute)\n//     // valid user asking for a update\n//     // require(_requestType == Request.Update);        \n//         userProfile[rootUser[msg.sender]].fname = _name;\n//         userProfile[rootUser[msg.sender]].age = _age;\n//         userProfile[rootUser[msg.sender]].phone = _phone;\n\n//         emit Log(\"Updated Profile\");\n//     }\n\n// // Retrieve user profile data \n// // coding best practice: not receommended to return an array from a function.. Cos it can get called \n// // repeatedly and costs gas.\n//   function readProfile() external validUser() view returns(string memory _name, uint _age, uint _phone){\n//             _name = userProfile[rootUser[msg.sender]].fname;\n//             _age = userProfile[rootUser[msg.sender]].age;\n//             _phone = userProfile[rootUser[msg.sender]].phone;\n//             // log output for testing\n//             // emit Profile(_age, _phone, _name);\n//   }\n\n  function saveDID(address ethAcc, string memory _did, string memory _streamID) external validUser(){\n\n    // require(if this role has admin then allow this function to execute)\n    // valid user asking for a update\n    // require(_requestType == Request.Update);        \n        userRefID[ethAcc].did = _did;\n        userRefID[ethAcc].streamID = _streamID;\n        emit DataLog(\"saved DID on chain\", userRefID[ethAcc].did, userRefID[ethAcc].streamID);\n    }\n\n  function retrieveDID(address ethAcc) external validUser() returns(string memory, string memory) {\n\n    // require(if this role has admin then allow this function to execute)\n    // valid user asking for a update\n    // require(_requestType == Request.Update);     \n        emit DataLog(\"retrieved DID\", userRefID[ethAcc].did, userRefID[ethAcc].streamID);\n        return (userRefID[ethAcc].did, userRefID[ethAcc].streamID);\n    }\n\n}\n\n  ",
  "sourcePath": "/Users/shaamaa/github/blockchain-developer-bootcamp-final-project/contracts/idWallet.sol",
  "compiler": {
    "name": "solc",
    "version": "0.6.12+commit.27d51765.Emscripten.clang"
  },
  "schemaVersion": "3.4.3",
  "updatedAt": "2021-12-28T18:06:58.798Z",
  "networkType": "ethereum",
  "devdoc": {
    "kind": "dev",
    "methods": {},
    "version": 1
  },
  "userdoc": {
    "kind": "user",
    "methods": {},
    "version": 1
  }
}