{
  "contractName": "idWallet",
  "abi": [
    {
      "anonymous": false,
      "inputs": [
        {
          "indexed": true,
          "internalType": "address",
          "name": "previousOwner",
          "type": "address"
        },
        {
          "indexed": true,
          "internalType": "address",
          "name": "newOwner",
          "type": "address"
        }
      ],
      "name": "OwnershipTransferred",
      "type": "event"
    },
    {
      "anonymous": false,
      "inputs": [
        {
          "indexed": false,
          "internalType": "string",
          "name": "msg",
          "type": "string"
        },
        {
          "indexed": false,
          "internalType": "string",
          "name": "did",
          "type": "string"
        },
        {
          "indexed": false,
          "internalType": "string",
          "name": "sid",
          "type": "string"
        }
      ],
      "name": "UrlLog",
      "type": "event"
    },
    {
      "anonymous": false,
      "inputs": [
        {
          "indexed": false,
          "internalType": "string",
          "name": "msg",
          "type": "string"
        },
        {
          "indexed": false,
          "internalType": "address",
          "name": "ethAcc",
          "type": "address"
        }
      ],
      "name": "accountAddrLog",
      "type": "event"
    },
    {
      "anonymous": false,
      "inputs": [
        {
          "indexed": false,
          "internalType": "string",
          "name": "msg",
          "type": "string"
        }
      ],
      "name": "messg",
      "type": "event"
    },
    {
      "stateMutability": "nonpayable",
      "type": "fallback"
    },
    {
      "inputs": [],
      "name": "owner",
      "outputs": [
        {
          "internalType": "address",
          "name": "",
          "type": "address"
        }
      ],
      "stateMutability": "view",
      "type": "function",
      "constant": true
    },
    {
      "inputs": [
        {
          "internalType": "address",
          "name": "",
          "type": "address"
        }
      ],
      "name": "profileData",
      "outputs": [
        {
          "internalType": "string",
          "name": "did",
          "type": "string"
        },
        {
          "internalType": "string",
          "name": "streamID",
          "type": "string"
        }
      ],
      "stateMutability": "view",
      "type": "function",
      "constant": true
    },
    {
      "inputs": [],
      "name": "renounceOwnership",
      "outputs": [],
      "stateMutability": "nonpayable",
      "type": "function"
    },
    {
      "inputs": [
        {
          "internalType": "address",
          "name": "newOwner",
          "type": "address"
        }
      ],
      "name": "transferOwnership",
      "outputs": [],
      "stateMutability": "nonpayable",
      "type": "function"
    },
    {
      "inputs": [
        {
          "internalType": "address",
          "name": "",
          "type": "address"
        }
      ],
      "name": "validAccounts",
      "outputs": [
        {
          "internalType": "address",
          "name": "",
          "type": "address"
        }
      ],
      "stateMutability": "view",
      "type": "function",
      "constant": true
    },
    {
      "inputs": [
        {
          "internalType": "address",
          "name": "ethAcc",
          "type": "address"
        }
      ],
      "name": "createRootUser",
      "outputs": [],
      "stateMutability": "nonpayable",
      "type": "function"
    },
    {
      "inputs": [
        {
          "internalType": "address",
          "name": "ethAcc",
          "type": "address"
        }
      ],
      "name": "deleteRootUser",
      "outputs": [],
      "stateMutability": "nonpayable",
      "type": "function"
    },
    {
      "inputs": [],
      "name": "checkUserAccess",
      "outputs": [
        {
          "internalType": "string",
          "name": "",
          "type": "string"
        }
      ],
      "stateMutability": "nonpayable",
      "type": "function"
    },
    {
      "inputs": [
        {
          "internalType": "address",
          "name": "ethAcc",
          "type": "address"
        }
      ],
      "name": "addNewAccount",
      "outputs": [],
      "stateMutability": "nonpayable",
      "type": "function"
    },
    {
      "inputs": [
        {
          "internalType": "address",
          "name": "ethAcc",
          "type": "address"
        }
      ],
      "name": "delAccounts",
      "outputs": [],
      "stateMutability": "nonpayable",
      "type": "function"
    },
    {
      "inputs": [
        {
          "internalType": "address",
          "name": "ethAcc",
          "type": "address"
        },
        {
          "internalType": "string",
          "name": "_did",
          "type": "string"
        },
        {
          "internalType": "string",
          "name": "_streamID",
          "type": "string"
        }
      ],
      "name": "saveUrl",
      "outputs": [
        {
          "internalType": "bool",
          "name": "",
          "type": "bool"
        }
      ],
      "stateMutability": "nonpayable",
      "type": "function"
    },
    {
      "inputs": [
        {
          "internalType": "address",
          "name": "ethAcc",
          "type": "address"
        }
      ],
      "name": "retrieveUrl",
      "outputs": [
        {
          "internalType": "string",
          "name": "",
          "type": "string"
        },
        {
          "internalType": "string",
          "name": "",
          "type": "string"
        }
      ],
      "stateMutability": "nonpayable",
      "type": "function"
    }
  ],
  "bytecode": "0x608060405234801561001057600080fd5b5061002d61002261003960201b60201c565b61004160201b60201c565b60018081905550610105565b600033905090565b60008060009054906101000a900473ffffffffffffffffffffffffffffffffffffffff169050816000806101000a81548173ffffffffffffffffffffffffffffffffffffffff021916908373ffffffffffffffffffffffffffffffffffffffff1602179055508173ffffffffffffffffffffffffffffffffffffffff168173ffffffffffffffffffffffffffffffffffffffff167f8be0079c531659141344cd1fd0a4f28419497f9722a3daafe3b4186f6b6457e060405160405180910390a35050565b61212380620001156000396000f3fe608060405234801561001057600080fd5b50600436106100b85760003560e01c806388cdf9aa1161007157806388cdf9aa1461017c5780638da5cb5b146101ad578063a5f346e6146101cb578063cecd917d146101e7578063e35a602c14610203578063f2fde38b14610233576100b9565b80631eac8f62146100bb57806332a01def146100d7578063556dea2a14610107578063641697a214610123578063715018a614610141578063740f61e61461014b576100b9565b5b005b6100d560048036038101906100d09190611619565b61024f565b005b6100f160048036038101906100ec919061178c565b610437565b6040516100fe9190611832565b60405180910390f35b610121600480360381019061011c9190611619565b610896565b005b61012b610968565b60405161013891906118d5565b60405180910390f35b610149610bb1565b005b61016560048036038101906101609190611619565b610c39565b6040516101739291906118f7565b60405180910390f35b61019660048036038101906101919190611619565b610d6d565b6040516101a49291906118f7565b60405180910390f35b6101b561100e565b6040516101c2919061193d565b60405180910390f35b6101e560048036038101906101e09190611619565b611037565b005b61020160048036038101906101fc9190611619565b611109565b005b61021d60048036038101906102189190611619565b61130d565b60405161022a919061193d565b60405180910390f35b61024d60048036038101906102489190611619565b611340565b005b610257611438565b73ffffffffffffffffffffffffffffffffffffffff1661027561100e565b73ffffffffffffffffffffffffffffffffffffffff16146102cb576040517f08c379a00000000000000000000000000000000000000000000000000000000081526004016102c2906119a4565b60405180910390fd5b600073ffffffffffffffffffffffffffffffffffffffff16600360008373ffffffffffffffffffffffffffffffffffffffff1673ffffffffffffffffffffffffffffffffffffffff16815260200190815260200160002060009054906101000a900473ffffffffffffffffffffffffffffffffffffffff1673ffffffffffffffffffffffffffffffffffffffff16146103fc57600360008273ffffffffffffffffffffffffffffffffffffffff1673ffffffffffffffffffffffffffffffffffffffff16815260200190815260200160002060006101000a81549073ffffffffffffffffffffffffffffffffffffffff02191690557f7f312466178d31bf6c19625e21584148ef3140dd726c39d7e983c7efe604eaf4816040516103ef9190611a36565b60405180910390a1610434565b7f7f312466178d31bf6c19625e21584148ef3140dd726c39d7e983c7efe604eaf48160405161042b9190611ab0565b60405180910390a15b50565b60008073ffffffffffffffffffffffffffffffffffffffff163373ffffffffffffffffffffffffffffffffffffffff16141561047657610475611ade565b5b838073ffffffffffffffffffffffffffffffffffffffff16600360003373ffffffffffffffffffffffffffffffffffffffff1673ffffffffffffffffffffffffffffffffffffffff16815260200190815260200160002060009054906101000a900473ffffffffffffffffffffffffffffffffffffffff1673ffffffffffffffffffffffffffffffffffffffff1614610544576040517f08c379a000000000000000000000000000000000000000000000000000000000815260040161053b90611b59565b60405180910390fd5b846000600260003373ffffffffffffffffffffffffffffffffffffffff1673ffffffffffffffffffffffffffffffffffffffff1681526020019081526020016000206040518060400160405290816000820180546105a190611ba8565b80601f01602080910402602001604051908101604052809291908181526020018280546105cd90611ba8565b801561061a5780601f106105ef5761010080835404028352916020019161061a565b820191906000526020600020905b8154815290600101906020018083116105fd57829003601f168201915b5050505050815260200160018201805461063390611ba8565b80601f016020809104026020016040519081016040528092919081815260200182805461065f90611ba8565b80156106ac5780601f10610681576101008083540402835291602001916106ac565b820191906000526020600020905b81548152906001019060200180831161068f57829003601f168201915b50505050508152505090506000816000015190506000815114610704576040517f08c379a00000000000000000000000000000000000000000000000000000000081526004016106fb90611c26565b60405180910390fd5b600087905060008151146108855787600260008b73ffffffffffffffffffffffffffffffffffffffff1673ffffffffffffffffffffffffffffffffffffffff1681526020019081526020016000206000019080519060200190610768929190611504565b5086600260008b73ffffffffffffffffffffffffffffffffffffffff1673ffffffffffffffffffffffffffffffffffffffff16815260200190815260200160002060010190805190602001906107bf929190611504565b507fecceaf54d8c42d59b7489b65253f3dbdcd5fc65939181447abf9a7b05e03caf4600260008b73ffffffffffffffffffffffffffffffffffffffff1673ffffffffffffffffffffffffffffffffffffffff168152602001908152602001600020600001600260008c73ffffffffffffffffffffffffffffffffffffffff1673ffffffffffffffffffffffffffffffffffffffff168152602001908152602001600020600101604051610873929190611d27565b60405180910390a1600195505061088b565b60009550505b505050509392505050565b808073ffffffffffffffffffffffffffffffffffffffff16600360003373ffffffffffffffffffffffffffffffffffffffff1673ffffffffffffffffffffffffffffffffffffffff16815260200190815260200160002060009054906101000a900473ffffffffffffffffffffffffffffffffffffffff1673ffffffffffffffffffffffffffffffffffffffff1614610964576040517f08c379a000000000000000000000000000000000000000000000000000000000815260040161095b90611b59565b60405180910390fd5b5050565b606060003390506000600260008373ffffffffffffffffffffffffffffffffffffffff1673ffffffffffffffffffffffffffffffffffffffff1681526020019081526020016000206040518060400160405290816000820180546109cb90611ba8565b80601f01602080910402602001604051908101604052809291908181526020018280546109f790611ba8565b8015610a445780601f10610a1957610100808354040283529160200191610a44565b820191906000526020600020905b815481529060010190602001808311610a2757829003601f168201915b50505050508152602001600182018054610a5d90611ba8565b80601f0160208091040260200160405190810160405280929190818152602001828054610a8990611ba8565b8015610ad65780601f10610aab57610100808354040283529160200191610ad6565b820191906000526020600020905b815481529060010190602001808311610ab957829003601f168201915b50505050508152505090506000816000015190506000815114610b6e577fca3c6bd816897fd92deef035afea50ca92d0c884c9769ca69c18b2edcefd8b7b604051610b2090611dbd565b60405180910390a17fecceaf54d8c42d59b7489b65253f3dbdcd5fc65939181447abf9a7b05e03caf482600001518360200151604051610b61929190611e29565b60405180910390a1610ba4565b7fca3c6bd816897fd92deef035afea50ca92d0c884c9769ca69c18b2edcefd8b7b604051610b9b90611ebf565b60405180910390a15b8160000151935050505090565b610bb9611438565b73ffffffffffffffffffffffffffffffffffffffff16610bd761100e565b73ffffffffffffffffffffffffffffffffffffffff1614610c2d576040517f08c379a0000000000000000000000000000000000000000000000000000000008152600401610c24906119a4565b60405180910390fd5b610c376000611440565b565b6002602052806000526040600020600091509050806000018054610c5c90611ba8565b80601f0160208091040260200160405190810160405280929190818152602001828054610c8890611ba8565b8015610cd55780601f10610caa57610100808354040283529160200191610cd5565b820191906000526020600020905b815481529060010190602001808311610cb857829003601f168201915b505050505090806001018054610cea90611ba8565b80601f0160208091040260200160405190810160405280929190818152602001828054610d1690611ba8565b8015610d635780601f10610d3857610100808354040283529160200191610d63565b820191906000526020600020905b815481529060010190602001808311610d4657829003601f168201915b5050505050905082565b606080600073ffffffffffffffffffffffffffffffffffffffff163373ffffffffffffffffffffffffffffffffffffffff161415610dae57610dad611ade565b5b7fecceaf54d8c42d59b7489b65253f3dbdcd5fc65939181447abf9a7b05e03caf4600260008573ffffffffffffffffffffffffffffffffffffffff1673ffffffffffffffffffffffffffffffffffffffff168152602001908152602001600020600001600260008673ffffffffffffffffffffffffffffffffffffffff1673ffffffffffffffffffffffffffffffffffffffff168152602001908152602001600020600101604051610e61929190611f2b565b60405180910390a1600260008473ffffffffffffffffffffffffffffffffffffffff1673ffffffffffffffffffffffffffffffffffffffff168152602001908152602001600020600001600260008573ffffffffffffffffffffffffffffffffffffffff1673ffffffffffffffffffffffffffffffffffffffff168152602001908152602001600020600101818054610ef990611ba8565b80601f0160208091040260200160405190810160405280929190818152602001828054610f2590611ba8565b8015610f725780601f10610f4757610100808354040283529160200191610f72565b820191906000526020600020905b815481529060010190602001808311610f5557829003601f168201915b50505050509150808054610f8590611ba8565b80601f0160208091040260200160405190810160405280929190818152602001828054610fb190611ba8565b8015610ffe5780601f10610fd357610100808354040283529160200191610ffe565b820191906000526020600020905b815481529060010190602001808311610fe157829003601f168201915b5050505050905091509150915091565b60008060009054906101000a900473ffffffffffffffffffffffffffffffffffffffff16905090565b808073ffffffffffffffffffffffffffffffffffffffff16600360003373ffffffffffffffffffffffffffffffffffffffff1673ffffffffffffffffffffffffffffffffffffffff16815260200190815260200160002060009054906101000a900473ffffffffffffffffffffffffffffffffffffffff1673ffffffffffffffffffffffffffffffffffffffff1614611105576040517f08c379a00000000000000000000000000000000000000000000000000000000081526004016110fc90611b59565b60405180910390fd5b5050565b80600073ffffffffffffffffffffffffffffffffffffffff16600360008373ffffffffffffffffffffffffffffffffffffffff1673ffffffffffffffffffffffffffffffffffffffff16815260200190815260200160002060009054906101000a900473ffffffffffffffffffffffffffffffffffffffff1673ffffffffffffffffffffffffffffffffffffffff16146111d8576040517f08c379a00000000000000000000000000000000000000000000000000000000081526004016111cf90611fc1565b60405180910390fd5b6111e0611438565b73ffffffffffffffffffffffffffffffffffffffff166111fe61100e565b73ffffffffffffffffffffffffffffffffffffffff1614611254576040517f08c379a000000000000000000000000000000000000000000000000000000000815260040161124b906119a4565b60405180910390fd5b81600360008473ffffffffffffffffffffffffffffffffffffffff1673ffffffffffffffffffffffffffffffffffffffff16815260200190815260200160002060006101000a81548173ffffffffffffffffffffffffffffffffffffffff021916908373ffffffffffffffffffffffffffffffffffffffff1602179055507f7f312466178d31bf6c19625e21584148ef3140dd726c39d7e983c7efe604eaf482604051611301919061202d565b60405180910390a15050565b60036020528060005260406000206000915054906101000a900473ffffffffffffffffffffffffffffffffffffffff1681565b611348611438565b73ffffffffffffffffffffffffffffffffffffffff1661136661100e565b73ffffffffffffffffffffffffffffffffffffffff16146113bc576040517f08c379a00000000000000000000000000000000000000000000000000000000081526004016113b3906119a4565b60405180910390fd5b600073ffffffffffffffffffffffffffffffffffffffff168173ffffffffffffffffffffffffffffffffffffffff16141561142c576040517f08c379a0000000000000000000000000000000000000000000000000000000008152600401611423906120cd565b60405180910390fd5b61143581611440565b50565b600033905090565b60008060009054906101000a900473ffffffffffffffffffffffffffffffffffffffff169050816000806101000a81548173ffffffffffffffffffffffffffffffffffffffff021916908373ffffffffffffffffffffffffffffffffffffffff1602179055508173ffffffffffffffffffffffffffffffffffffffff168173ffffffffffffffffffffffffffffffffffffffff167f8be0079c531659141344cd1fd0a4f28419497f9722a3daafe3b4186f6b6457e060405160405180910390a35050565b82805461151090611ba8565b90600052602060002090601f0160209004810192826115325760008555611579565b82601f1061154b57805160ff1916838001178555611579565b82800160010185558215611579579182015b8281111561157857825182559160200191906001019061155d565b5b509050611586919061158a565b5090565b5b808211156115a357600081600090555060010161158b565b5090565b6000604051905090565b600080fd5b600080fd5b600073ffffffffffffffffffffffffffffffffffffffff82169050919050565b60006115e6826115bb565b9050919050565b6115f6816115db565b811461160157600080fd5b50565b600081359050611613816115ed565b92915050565b60006020828403121561162f5761162e6115b1565b5b600061163d84828501611604565b91505092915050565b600080fd5b600080fd5b6000601f19601f8301169050919050565b7f4e487b7100000000000000000000000000000000000000000000000000000000600052604160045260246000fd5b61169982611650565b810181811067ffffffffffffffff821117156116b8576116b7611661565b5b80604052505050565b60006116cb6115a7565b90506116d78282611690565b919050565b600067ffffffffffffffff8211156116f7576116f6611661565b5b61170082611650565b9050602081019050919050565b82818337600083830152505050565b600061172f61172a846116dc565b6116c1565b90508281526020810184848401111561174b5761174a61164b565b5b61175684828561170d565b509392505050565b600082601f83011261177357611772611646565b5b813561178384826020860161171c565b91505092915050565b6000806000606084860312156117a5576117a46115b1565b5b60006117b386828701611604565b935050602084013567ffffffffffffffff8111156117d4576117d36115b6565b5b6117e08682870161175e565b925050604084013567ffffffffffffffff811115611801576118006115b6565b5b61180d8682870161175e565b9150509250925092565b60008115159050919050565b61182c81611817565b82525050565b60006020820190506118476000830184611823565b92915050565b600081519050919050565b600082825260208201905092915050565b60005b8381101561188757808201518184015260208101905061186c565b83811115611896576000848401525b50505050565b60006118a78261184d565b6118b18185611858565b93506118c1818560208601611869565b6118ca81611650565b840191505092915050565b600060208201905081810360008301526118ef818461189c565b905092915050565b60006040820190508181036000830152611911818561189c565b90508181036020830152611925818461189c565b90509392505050565b611937816115db565b82525050565b6000602082019050611952600083018461192e565b92915050565b7f4f776e61626c653a2063616c6c6572206973206e6f7420746865206f776e6572600082015250565b600061198e602083611858565b915061199982611958565b602082019050919050565b600060208201905081810360008301526119bd81611981565b9050919050565b7f726f6f742075736572206163636573732064656c6574656420666f722061636360008201527f6f756e74203a2000000000000000000000000000000000000000000000000000602082015250565b6000611a20602783611858565b9150611a2b826119c4565b604082019050919050565b60006040820190508181036000830152611a4f81611a13565b9050611a5e602083018461192e565b92915050565b7f4163636f756e7420646f6573206e6f74206578697374203a2000000000000000600082015250565b6000611a9a601983611858565b9150611aa582611a64565b602082019050919050565b60006040820190508181036000830152611ac981611a8d565b9050611ad8602083018461192e565b92915050565b7f4e487b7100000000000000000000000000000000000000000000000000000000600052600160045260246000fd5b7f4e6f74206120726f6f7420757365720000000000000000000000000000000000600082015250565b6000611b43600f83611858565b9150611b4e82611b0d565b602082019050919050565b60006020820190508181036000830152611b7281611b36565b9050919050565b7f4e487b7100000000000000000000000000000000000000000000000000000000600052602260045260246000fd5b60006002820490506001821680611bc057607f821691505b60208210811415611bd457611bd3611b79565b5b50919050565b7f50726f66696c6520616c72656164792065786973747300000000000000000000600082015250565b6000611c10601683611858565b9150611c1b82611bda565b602082019050919050565b60006020820190508181036000830152611c3f81611c03565b9050919050565b7f736176656420444944206f6e20636861696e0000000000000000000000000000600082015250565b6000611c7c601283611858565b9150611c8782611c46565b602082019050919050565b60008190508160005260206000209050919050565b60008154611cb481611ba8565b611cbe8186611858565b94506001821660008114611cd95760018114611ceb57611d1e565b60ff1983168652602086019350611d1e565b611cf485611c92565b60005b83811015611d1657815481890152600182019150602081019050611cf7565b808801955050505b50505092915050565b60006060820190508181036000830152611d4081611c6f565b90508181036020830152611d548185611ca7565b90508181036040830152611d688184611ca7565b90509392505050565b7f50726f66696c6520657869737473000000000000000000000000000000000000600082015250565b6000611da7600e83611858565b9150611db282611d71565b602082019050919050565b60006020820190508181036000830152611dd681611d9a565b9050919050565b7f55524c204c4f473a200000000000000000000000000000000000000000000000600082015250565b6000611e13600983611858565b9150611e1e82611ddd565b602082019050919050565b60006060820190508181036000830152611e4281611e06565b90508181036020830152611e56818561189c565b90508181036040830152611e6a818461189c565b90509392505050565b7f4e6f2050726f66696c6520657869737473000000000000000000000000000000600082015250565b6000611ea9601183611858565b9150611eb482611e73565b602082019050919050565b60006020820190508181036000830152611ed881611e9c565b9050919050565b7f7265747269657665642044494400000000000000000000000000000000000000600082015250565b6000611f15600d83611858565b9150611f2082611edf565b602082019050919050565b60006060820190508181036000830152611f4481611f08565b90508181036020830152611f588185611ca7565b90508181036040830152611f6c8184611ca7565b90509392505050565b7f4163636f756e7420616c72656164792065786973747300000000000000000000600082015250565b6000611fab601683611858565b9150611fb682611f75565b602082019050919050565b60006020820190508181036000830152611fda81611f9e565b9050919050565b7f726f6f742075736572206372656174656420666f722061646472657373203a20600082015250565b6000612017602083611858565b915061202282611fe1565b602082019050919050565b600060408201905081810360008301526120468161200a565b9050612055602083018461192e565b92915050565b7f4f776e61626c653a206e6577206f776e657220697320746865207a65726f206160008201527f6464726573730000000000000000000000000000000000000000000000000000602082015250565b60006120b7602683611858565b91506120c28261205b565b604082019050919050565b600060208201905081810360008301526120e6816120aa565b905091905056fea2646970667358221220481b8091bae27c59e33a86805dbdfee52f6ab1b611b70aa71f79a14cc8deb77564736f6c634300080b0033",
  "immutableReferences": {},
  "source": "// SPDX-License-Identifier: MIT\npragma solidity >=0.8.0 <0.9.0;\n\nimport \"../node_modules/openzeppelin-solidity/contracts/access/Ownable.sol\";\nimport \"../node_modules/openzeppelin-solidity/contracts/security/ReentrancyGuard.sol\";\n\ncontract idWallet is Ownable, ReentrancyGuard{\n\n//////******************** CHECK _OWNER VS MSG>SENDER FOR CONTRACT OWNER *************/\n//define struct for the user data. An Eth account can have only one matching profile\n// DID is the identity URL - a W3C standard\n// stream ID is the URL to access content document - underneath is a CID for a IPFS document\n\n  struct Url {\n    //did reference to user profile data\n    // ** solidity notes ** \"did\" is the key reference for the value stored in struct \n    string did;\n    string streamID;\n  }\n\n  // profile to URL mapping - is a link to the offchain profile database\n  mapping (address => Url) public profileData;\n\n  // Access table : list of all valid accounts including root address. \n  // mapping looks like this..\n  // 0xa1...(key - > unique account address) = 0xroo2 (value -> corresponding root user address)\n  // if only one address exists, both key and value will be root addresses\n\n  mapping (address => address) public validAccounts;\n\n  //message events\n  event UrlLog(string msg, string did, string sid);\n  event accountAddrLog(string msg, address ethAcc);\n  event messg(string msg);\n\n///////////////////////////////////////\n// MODIFIERS\n///////////////////////////////////////\n// ensure caller is not a zero address\n  modifier validAddress () {\n   //ensure user has a valid profile\n    // require(msg.sender != address(0), 'Invalid caller address');\n    // emit accountAddrLog(\"Invalid caller address\", msg.sender);\n    // if (msg.sender == address(0)) {\n      assert(msg.sender != address(0));\n    _;\n  }\n\n  //check if root user (owner of user profle)\n  modifier onlyRootUser (address ethAcc) {\n    require(validAccounts[msg.sender] == ethAcc, \"Not a root user\");\n    _;\n  }\n\n  //avoid duplicate profiles from being created \n  modifier notDupProfile(address ethAcc) {\n    // check if profile data exists\n    Url memory _senderUrl = profileData[msg.sender];\n    //way to test for empty string\n    bytes memory tempSenderDid = bytes(_senderUrl.did);\n    // ensure no prior profile data URL exists for user\n    require (tempSenderDid.length == 0, \"Profile already exists\");\n    _;\n  }\n\n  //avoid duplicate account address entries in access table\n  modifier notDupUser(address ethAcc) {\n    require(validAccounts[ethAcc] == address(0), \"Account already exists\");\n    _;\n  }\n\n// add account address as root user. only contract owner is allowed this privilege.\n  function createRootUser(address ethAcc) external notDupUser(ethAcc) onlyOwner{\n    //set value and key to same address\n    validAccounts[ethAcc] = ethAcc;\n    emit accountAddrLog(\"root user created for address : \", ethAcc);\n  }\n\n//delete root user\n  function deleteRootUser(address ethAcc) external onlyOwner {\n    //set value and key to same address\n    if(validAccounts[ethAcc] != address(0))\n    {\n       delete validAccounts[ethAcc];\n       emit accountAddrLog(\"root user access deleted for account : \", ethAcc);\n    }\n    else\n    {\n        emit accountAddrLog(\"Account does not exist : \", ethAcc);\n    }\n    }\n\n// Check if profile exists for this user.\n  function checkUserAccess() external returns (string memory){\n\n      //placeholder for future code--------\n      //check if one of the valid access accounts\n      //if so, retrieve root user ----------\n      //else, assume msg.sender is root user\n      address rootUser = msg.sender;\n      //\n    //check if 'did' exists for this user  \n    Url memory _senderUrl = profileData[rootUser];\n    bytes memory tempSenderDid = bytes(_senderUrl.did);\n    // yes, confirm with msg and log values\n    if (tempSenderDid.length != 0) {\n      emit messg(\"Profile exists\");\n      emit UrlLog(\"URL LOG: \", _senderUrl.did, _senderUrl.streamID);\n    }\n    // no, send error message and log values\n    else {\n      emit messg(\"No Profile exists\");\n    }\n    //send did or null\n    return _senderUrl.did;\n  }\n\n  //\n  // option to add multiple controlling accounts for a user profile \n  // \n  function addNewAccount(address ethAcc) external onlyRootUser(ethAcc) {\n    // to be implemented\n  }\n\n  // future function to delete user entries\n  function delAccounts(address ethAcc) external onlyRootUser(ethAcc) {\n    // to be implemented\n  }\n  //\n  // when a profile is created - the associated DID reference and streamIDs will be stored\n  // update happens only when\n  // * user address is valid\n  // * account has root user access\n  // * profile does not exist already - did created and stored only once per user - cannot be rotated\n\n  function saveUrl(address ethAcc, string memory _did, string memory _streamID) external validAddress onlyRootUser(ethAcc) notDupProfile(ethAcc) returns (bool){\n\n  // ensure input did string is not zero before saving to storage variable   \n    bytes memory tempDid = bytes(_did);\n    if (tempDid.length != 0)\n    {\n        profileData[ethAcc].did = _did;\n        profileData[ethAcc].streamID = _streamID;\n        emit UrlLog(\"saved DID on chain\", profileData[ethAcc].did, profileData[ethAcc].streamID);\n        return true;\n    }  \n    return false;\n  }\n\n\n// retrieve did and stream ID from storage variable\n  function retrieveUrl(address ethAcc) external validAddress returns(string memory, string memory)  {\n\n    // require(if this role has admin then allow this function to execute)\n    // valid user asking for a update\n    // require(_requestType == Request.Update);     \n        emit UrlLog(\"retrieved DID\", profileData[ethAcc].did, profileData[ethAcc].streamID);\n        return (profileData[ethAcc].did, profileData[ethAcc].streamID);\n    }\n  \n  fallback() external  {\n  }\n\n}\n\n",
  "sourcePath": "/Users/shaamaa/github/blockchain-developer-bootcamp-final-project/contracts/idWallet.sol",
  "compiler": {
    "name": "solc",
    "version": "0.8.11+commit.d7f03943.Emscripten.clang"
  },
  "schemaVersion": "3.4.3",
  "updatedAt": "2022-01-20T02:40:56.468Z",
  "networkType": "ethereum",
  "devdoc": {
    "kind": "dev",
    "methods": {
      "owner()": {
        "details": "Returns the address of the current owner."
      },
      "renounceOwnership()": {
        "details": "Leaves the contract without owner. It will not be possible to call `onlyOwner` functions anymore. Can only be called by the current owner. NOTE: Renouncing ownership will leave the contract without an owner, thereby removing any functionality that is only available to the owner."
      },
      "transferOwnership(address)": {
        "details": "Transfers ownership of the contract to a new account (`newOwner`). Can only be called by the current owner."
      }
    },
    "version": 1
  },
  "userdoc": {
    "kind": "user",
    "methods": {},
    "version": 1
  }
}