{
  "contractName": "idWallet",
  "abi": [
    {
      "anonymous": false,
      "inputs": [
        {
          "indexed": true,
          "internalType": "address",
          "name": "previousOwner",
          "type": "address"
        },
        {
          "indexed": true,
          "internalType": "address",
          "name": "newOwner",
          "type": "address"
        }
      ],
      "name": "OwnershipTransferred",
      "type": "event"
    },
    {
      "anonymous": false,
      "inputs": [
        {
          "indexed": false,
          "internalType": "string",
          "name": "msg",
          "type": "string"
        },
        {
          "indexed": false,
          "internalType": "string",
          "name": "did",
          "type": "string"
        },
        {
          "indexed": false,
          "internalType": "string",
          "name": "sid",
          "type": "string"
        }
      ],
      "name": "UrlLog",
      "type": "event"
    },
    {
      "anonymous": false,
      "inputs": [
        {
          "indexed": false,
          "internalType": "string",
          "name": "msg",
          "type": "string"
        },
        {
          "indexed": false,
          "internalType": "address",
          "name": "ethAcc",
          "type": "address"
        }
      ],
      "name": "accountAddrLog",
      "type": "event"
    },
    {
      "anonymous": false,
      "inputs": [
        {
          "indexed": false,
          "internalType": "string",
          "name": "msg",
          "type": "string"
        }
      ],
      "name": "messg",
      "type": "event"
    },
    {
      "stateMutability": "nonpayable",
      "type": "fallback"
    },
    {
      "inputs": [],
      "name": "owner",
      "outputs": [
        {
          "internalType": "address",
          "name": "",
          "type": "address"
        }
      ],
      "stateMutability": "view",
      "type": "function",
      "constant": true
    },
    {
      "inputs": [
        {
          "internalType": "address",
          "name": "",
          "type": "address"
        }
      ],
      "name": "profileData",
      "outputs": [
        {
          "internalType": "string",
          "name": "did",
          "type": "string"
        },
        {
          "internalType": "string",
          "name": "streamID",
          "type": "string"
        }
      ],
      "stateMutability": "view",
      "type": "function",
      "constant": true
    },
    {
      "inputs": [],
      "name": "renounceOwnership",
      "outputs": [],
      "stateMutability": "nonpayable",
      "type": "function"
    },
    {
      "inputs": [
        {
          "internalType": "address",
          "name": "newOwner",
          "type": "address"
        }
      ],
      "name": "transferOwnership",
      "outputs": [],
      "stateMutability": "nonpayable",
      "type": "function"
    },
    {
      "inputs": [
        {
          "internalType": "address",
          "name": "",
          "type": "address"
        }
      ],
      "name": "validAccounts",
      "outputs": [
        {
          "internalType": "address",
          "name": "",
          "type": "address"
        }
      ],
      "stateMutability": "view",
      "type": "function",
      "constant": true
    },
    {
      "inputs": [
        {
          "internalType": "address",
          "name": "ethAcc",
          "type": "address"
        }
      ],
      "name": "createRootUser",
      "outputs": [],
      "stateMutability": "nonpayable",
      "type": "function"
    },
    {
      "inputs": [
        {
          "internalType": "address",
          "name": "ethAcc",
          "type": "address"
        }
      ],
      "name": "deleteRootUser",
      "outputs": [],
      "stateMutability": "nonpayable",
      "type": "function"
    },
    {
      "inputs": [],
      "name": "checkUserAccess",
      "outputs": [
        {
          "internalType": "string",
          "name": "",
          "type": "string"
        }
      ],
      "stateMutability": "nonpayable",
      "type": "function"
    },
    {
      "inputs": [
        {
          "internalType": "string",
          "name": "_text",
          "type": "string"
        }
      ],
      "name": "setStr",
      "outputs": [],
      "stateMutability": "nonpayable",
      "type": "function"
    },
    {
      "inputs": [],
      "name": "getStr",
      "outputs": [
        {
          "internalType": "string",
          "name": "",
          "type": "string"
        }
      ],
      "stateMutability": "view",
      "type": "function",
      "constant": true
    },
    {
      "inputs": [
        {
          "internalType": "address",
          "name": "ethAcc",
          "type": "address"
        },
        {
          "internalType": "string",
          "name": "_did",
          "type": "string"
        },
        {
          "internalType": "string",
          "name": "_streamID",
          "type": "string"
        }
      ],
      "name": "saveUrl",
      "outputs": [
        {
          "internalType": "bool",
          "name": "",
          "type": "bool"
        }
      ],
      "stateMutability": "nonpayable",
      "type": "function"
    },
    {
      "inputs": [
        {
          "internalType": "address",
          "name": "ethAcc",
          "type": "address"
        }
      ],
      "name": "retrieveUrl",
      "outputs": [
        {
          "internalType": "string",
          "name": "",
          "type": "string"
        },
        {
          "internalType": "string",
          "name": "",
          "type": "string"
        }
      ],
      "stateMutability": "nonpayable",
      "type": "function"
    }
  ],
  "bytecode": "0x608060405234801561001057600080fd5b5061002d61002261003960201b60201c565b61004160201b60201c565b60018081905550610105565b600033905090565b60008060009054906101000a900473ffffffffffffffffffffffffffffffffffffffff169050816000806101000a81548173ffffffffffffffffffffffffffffffffffffffff021916908373ffffffffffffffffffffffffffffffffffffffff1602179055508173ffffffffffffffffffffffffffffffffffffffff168173ffffffffffffffffffffffffffffffffffffffff167f8be0079c531659141344cd1fd0a4f28419497f9722a3daafe3b4186f6b6457e060405160405180910390a35050565b61214180620001156000396000f3fe608060405234801561001057600080fd5b50600436106100b85760003560e01c806388cdf9aa1161007157806388cdf9aa146101b55780638da5cb5b146101e6578063b8c9e4ed14610204578063cecd917d14610222578063e35a602c1461023e578063f2fde38b1461026e576100b9565b8063191347df146100f45780631eac8f621461011057806332a01def1461012c578063641697a21461015c578063715018a61461017a578063740f61e614610184576100b9565b5b6040517f08c379a00000000000000000000000000000000000000000000000000000000081526004016100eb9061156d565b60405180910390fd5b61010e600480360381019061010991906116e7565b61028a565b005b61012a6004803603810190610125919061178e565b6102a4565b005b610146600480360381019061014191906117bb565b61048c565b6040516101539190611861565b60405180910390f35b6101646108eb565b60405161017191906118f3565b60405180910390f35b610182610b34565b005b61019e6004803603810190610199919061178e565b610bbc565b6040516101ac929190611915565b60405180910390f35b6101cf60048036038101906101ca919061178e565b610cf0565b6040516101dd929190611915565b60405180910390f35b6101ee610f91565b6040516101fb919061195b565b60405180910390f35b61020c610fba565b60405161021991906118f3565b60405180910390f35b61023c6004803603810190610237919061178e565b61104c565b005b6102586004803603810190610253919061178e565b611250565b604051610265919061195b565b60405180910390f35b6102886004803603810190610283919061178e565b611283565b005b80600490805190602001906102a0929190611447565b5050565b6102ac61137b565b73ffffffffffffffffffffffffffffffffffffffff166102ca610f91565b73ffffffffffffffffffffffffffffffffffffffff1614610320576040517f08c379a0000000000000000000000000000000000000000000000000000000008152600401610317906119c2565b60405180910390fd5b600073ffffffffffffffffffffffffffffffffffffffff16600360008373ffffffffffffffffffffffffffffffffffffffff1673ffffffffffffffffffffffffffffffffffffffff16815260200190815260200160002060009054906101000a900473ffffffffffffffffffffffffffffffffffffffff1673ffffffffffffffffffffffffffffffffffffffff161461045157600360008273ffffffffffffffffffffffffffffffffffffffff1673ffffffffffffffffffffffffffffffffffffffff16815260200190815260200160002060006101000a81549073ffffffffffffffffffffffffffffffffffffffff02191690557f7f312466178d31bf6c19625e21584148ef3140dd726c39d7e983c7efe604eaf4816040516104449190611a54565b60405180910390a1610489565b7f7f312466178d31bf6c19625e21584148ef3140dd726c39d7e983c7efe604eaf4816040516104809190611ace565b60405180910390a15b50565b60008073ffffffffffffffffffffffffffffffffffffffff163373ffffffffffffffffffffffffffffffffffffffff1614156104cb576104ca611afc565b5b838073ffffffffffffffffffffffffffffffffffffffff16600360003373ffffffffffffffffffffffffffffffffffffffff1673ffffffffffffffffffffffffffffffffffffffff16815260200190815260200160002060009054906101000a900473ffffffffffffffffffffffffffffffffffffffff1673ffffffffffffffffffffffffffffffffffffffff1614610599576040517f08c379a000000000000000000000000000000000000000000000000000000000815260040161059090611b77565b60405180910390fd5b846000600260003373ffffffffffffffffffffffffffffffffffffffff1673ffffffffffffffffffffffffffffffffffffffff1681526020019081526020016000206040518060400160405290816000820180546105f690611bc6565b80601f016020809104026020016040519081016040528092919081815260200182805461062290611bc6565b801561066f5780601f106106445761010080835404028352916020019161066f565b820191906000526020600020905b81548152906001019060200180831161065257829003601f168201915b5050505050815260200160018201805461068890611bc6565b80601f01602080910402602001604051908101604052809291908181526020018280546106b490611bc6565b80156107015780601f106106d657610100808354040283529160200191610701565b820191906000526020600020905b8154815290600101906020018083116106e457829003601f168201915b50505050508152505090506000816000015190506000815114610759576040517f08c379a000000000000000000000000000000000000000000000000000000000815260040161075090611c44565b60405180910390fd5b600087905060008151146108da5787600260008b73ffffffffffffffffffffffffffffffffffffffff1673ffffffffffffffffffffffffffffffffffffffff16815260200190815260200160002060000190805190602001906107bd929190611447565b5086600260008b73ffffffffffffffffffffffffffffffffffffffff1673ffffffffffffffffffffffffffffffffffffffff1681526020019081526020016000206001019080519060200190610814929190611447565b507fecceaf54d8c42d59b7489b65253f3dbdcd5fc65939181447abf9a7b05e03caf4600260008b73ffffffffffffffffffffffffffffffffffffffff1673ffffffffffffffffffffffffffffffffffffffff168152602001908152602001600020600001600260008c73ffffffffffffffffffffffffffffffffffffffff1673ffffffffffffffffffffffffffffffffffffffff1681526020019081526020016000206001016040516108c8929190611d45565b60405180910390a160019550506108e0565b60009550505b505050509392505050565b606060003390506000600260008373ffffffffffffffffffffffffffffffffffffffff1673ffffffffffffffffffffffffffffffffffffffff16815260200190815260200160002060405180604001604052908160008201805461094e90611bc6565b80601f016020809104026020016040519081016040528092919081815260200182805461097a90611bc6565b80156109c75780601f1061099c576101008083540402835291602001916109c7565b820191906000526020600020905b8154815290600101906020018083116109aa57829003601f168201915b505050505081526020016001820180546109e090611bc6565b80601f0160208091040260200160405190810160405280929190818152602001828054610a0c90611bc6565b8015610a595780601f10610a2e57610100808354040283529160200191610a59565b820191906000526020600020905b815481529060010190602001808311610a3c57829003601f168201915b50505050508152505090506000816000015190506000815114610af1577fca3c6bd816897fd92deef035afea50ca92d0c884c9769ca69c18b2edcefd8b7b604051610aa390611ddb565b60405180910390a17fecceaf54d8c42d59b7489b65253f3dbdcd5fc65939181447abf9a7b05e03caf482600001518360200151604051610ae4929190611e47565b60405180910390a1610b27565b7fca3c6bd816897fd92deef035afea50ca92d0c884c9769ca69c18b2edcefd8b7b604051610b1e90611edd565b60405180910390a15b8160000151935050505090565b610b3c61137b565b73ffffffffffffffffffffffffffffffffffffffff16610b5a610f91565b73ffffffffffffffffffffffffffffffffffffffff1614610bb0576040517f08c379a0000000000000000000000000000000000000000000000000000000008152600401610ba7906119c2565b60405180910390fd5b610bba6000611383565b565b6002602052806000526040600020600091509050806000018054610bdf90611bc6565b80601f0160208091040260200160405190810160405280929190818152602001828054610c0b90611bc6565b8015610c585780601f10610c2d57610100808354040283529160200191610c58565b820191906000526020600020905b815481529060010190602001808311610c3b57829003601f168201915b505050505090806001018054610c6d90611bc6565b80601f0160208091040260200160405190810160405280929190818152602001828054610c9990611bc6565b8015610ce65780601f10610cbb57610100808354040283529160200191610ce6565b820191906000526020600020905b815481529060010190602001808311610cc957829003601f168201915b5050505050905082565b606080600073ffffffffffffffffffffffffffffffffffffffff163373ffffffffffffffffffffffffffffffffffffffff161415610d3157610d30611afc565b5b7fecceaf54d8c42d59b7489b65253f3dbdcd5fc65939181447abf9a7b05e03caf4600260008573ffffffffffffffffffffffffffffffffffffffff1673ffffffffffffffffffffffffffffffffffffffff168152602001908152602001600020600001600260008673ffffffffffffffffffffffffffffffffffffffff1673ffffffffffffffffffffffffffffffffffffffff168152602001908152602001600020600101604051610de4929190611f49565b60405180910390a1600260008473ffffffffffffffffffffffffffffffffffffffff1673ffffffffffffffffffffffffffffffffffffffff168152602001908152602001600020600001600260008573ffffffffffffffffffffffffffffffffffffffff1673ffffffffffffffffffffffffffffffffffffffff168152602001908152602001600020600101818054610e7c90611bc6565b80601f0160208091040260200160405190810160405280929190818152602001828054610ea890611bc6565b8015610ef55780601f10610eca57610100808354040283529160200191610ef5565b820191906000526020600020905b815481529060010190602001808311610ed857829003601f168201915b50505050509150808054610f0890611bc6565b80601f0160208091040260200160405190810160405280929190818152602001828054610f3490611bc6565b8015610f815780601f10610f5657610100808354040283529160200191610f81565b820191906000526020600020905b815481529060010190602001808311610f6457829003601f168201915b5050505050905091509150915091565b60008060009054906101000a900473ffffffffffffffffffffffffffffffffffffffff16905090565b606060048054610fc990611bc6565b80601f0160208091040260200160405190810160405280929190818152602001828054610ff590611bc6565b80156110425780601f1061101757610100808354040283529160200191611042565b820191906000526020600020905b81548152906001019060200180831161102557829003601f168201915b5050505050905090565b80600073ffffffffffffffffffffffffffffffffffffffff16600360008373ffffffffffffffffffffffffffffffffffffffff1673ffffffffffffffffffffffffffffffffffffffff16815260200190815260200160002060009054906101000a900473ffffffffffffffffffffffffffffffffffffffff1673ffffffffffffffffffffffffffffffffffffffff161461111b576040517f08c379a000000000000000000000000000000000000000000000000000000000815260040161111290611fdf565b60405180910390fd5b61112361137b565b73ffffffffffffffffffffffffffffffffffffffff16611141610f91565b73ffffffffffffffffffffffffffffffffffffffff1614611197576040517f08c379a000000000000000000000000000000000000000000000000000000000815260040161118e906119c2565b60405180910390fd5b81600360008473ffffffffffffffffffffffffffffffffffffffff1673ffffffffffffffffffffffffffffffffffffffff16815260200190815260200160002060006101000a81548173ffffffffffffffffffffffffffffffffffffffff021916908373ffffffffffffffffffffffffffffffffffffffff1602179055507f7f312466178d31bf6c19625e21584148ef3140dd726c39d7e983c7efe604eaf482604051611244919061204b565b60405180910390a15050565b60036020528060005260406000206000915054906101000a900473ffffffffffffffffffffffffffffffffffffffff1681565b61128b61137b565b73ffffffffffffffffffffffffffffffffffffffff166112a9610f91565b73ffffffffffffffffffffffffffffffffffffffff16146112ff576040517f08c379a00000000000000000000000000000000000000000000000000000000081526004016112f6906119c2565b60405180910390fd5b600073ffffffffffffffffffffffffffffffffffffffff168173ffffffffffffffffffffffffffffffffffffffff16141561136f576040517f08c379a0000000000000000000000000000000000000000000000000000000008152600401611366906120eb565b60405180910390fd5b61137881611383565b50565b600033905090565b60008060009054906101000a900473ffffffffffffffffffffffffffffffffffffffff169050816000806101000a81548173ffffffffffffffffffffffffffffffffffffffff021916908373ffffffffffffffffffffffffffffffffffffffff1602179055508173ffffffffffffffffffffffffffffffffffffffff168173ffffffffffffffffffffffffffffffffffffffff167f8be0079c531659141344cd1fd0a4f28419497f9722a3daafe3b4186f6b6457e060405160405180910390a35050565b82805461145390611bc6565b90600052602060002090601f01602090048101928261147557600085556114bc565b82601f1061148e57805160ff19168380011785556114bc565b828001600101855582156114bc579182015b828111156114bb5782518255916020019190600101906114a0565b5b5090506114c991906114cd565b5090565b5b808211156114e65760008160009055506001016114ce565b5090565b600082825260208201905092915050565b7f4572726f72206f63637572656420696e20736d61727420636f6e74726163742060008201527f70726f63657373696e672e2e2066616c6c6261636b20696e766f6b6564000000602082015250565b6000611557603d836114ea565b9150611562826114fb565b604082019050919050565b600060208201905081810360008301526115868161154a565b9050919050565b6000604051905090565b600080fd5b600080fd5b600080fd5b600080fd5b6000601f19601f8301169050919050565b7f4e487b7100000000000000000000000000000000000000000000000000000000600052604160045260246000fd5b6115f4826115ab565b810181811067ffffffffffffffff82111715611613576116126115bc565b5b80604052505050565b600061162661158d565b905061163282826115eb565b919050565b600067ffffffffffffffff821115611652576116516115bc565b5b61165b826115ab565b9050602081019050919050565b82818337600083830152505050565b600061168a61168584611637565b61161c565b9050828152602081018484840111156116a6576116a56115a6565b5b6116b1848285611668565b509392505050565b600082601f8301126116ce576116cd6115a1565b5b81356116de848260208601611677565b91505092915050565b6000602082840312156116fd576116fc611597565b5b600082013567ffffffffffffffff81111561171b5761171a61159c565b5b611727848285016116b9565b91505092915050565b600073ffffffffffffffffffffffffffffffffffffffff82169050919050565b600061175b82611730565b9050919050565b61176b81611750565b811461177657600080fd5b50565b60008135905061178881611762565b92915050565b6000602082840312156117a4576117a3611597565b5b60006117b284828501611779565b91505092915050565b6000806000606084860312156117d4576117d3611597565b5b60006117e286828701611779565b935050602084013567ffffffffffffffff8111156118035761180261159c565b5b61180f868287016116b9565b925050604084013567ffffffffffffffff8111156118305761182f61159c565b5b61183c868287016116b9565b9150509250925092565b60008115159050919050565b61185b81611846565b82525050565b60006020820190506118766000830184611852565b92915050565b600081519050919050565b60005b838110156118a557808201518184015260208101905061188a565b838111156118b4576000848401525b50505050565b60006118c58261187c565b6118cf81856114ea565b93506118df818560208601611887565b6118e8816115ab565b840191505092915050565b6000602082019050818103600083015261190d81846118ba565b905092915050565b6000604082019050818103600083015261192f81856118ba565b9050818103602083015261194381846118ba565b90509392505050565b61195581611750565b82525050565b6000602082019050611970600083018461194c565b92915050565b7f4f776e61626c653a2063616c6c6572206973206e6f7420746865206f776e6572600082015250565b60006119ac6020836114ea565b91506119b782611976565b602082019050919050565b600060208201905081810360008301526119db8161199f565b9050919050565b7f726f6f742075736572206163636573732064656c6574656420666f722061636360008201527f6f756e74203a2000000000000000000000000000000000000000000000000000602082015250565b6000611a3e6027836114ea565b9150611a49826119e2565b604082019050919050565b60006040820190508181036000830152611a6d81611a31565b9050611a7c602083018461194c565b92915050565b7f4163636f756e7420646f6573206e6f74206578697374203a2000000000000000600082015250565b6000611ab86019836114ea565b9150611ac382611a82565b602082019050919050565b60006040820190508181036000830152611ae781611aab565b9050611af6602083018461194c565b92915050565b7f4e487b7100000000000000000000000000000000000000000000000000000000600052600160045260246000fd5b7f4e6f74206120726f6f7420757365720000000000000000000000000000000000600082015250565b6000611b61600f836114ea565b9150611b6c82611b2b565b602082019050919050565b60006020820190508181036000830152611b9081611b54565b9050919050565b7f4e487b7100000000000000000000000000000000000000000000000000000000600052602260045260246000fd5b60006002820490506001821680611bde57607f821691505b60208210811415611bf257611bf1611b97565b5b50919050565b7f50726f66696c6520616c72656164792065786973747300000000000000000000600082015250565b6000611c2e6016836114ea565b9150611c3982611bf8565b602082019050919050565b60006020820190508181036000830152611c5d81611c21565b9050919050565b7f736176656420444944206f6e20636861696e0000000000000000000000000000600082015250565b6000611c9a6012836114ea565b9150611ca582611c64565b602082019050919050565b60008190508160005260206000209050919050565b60008154611cd281611bc6565b611cdc81866114ea565b94506001821660008114611cf75760018114611d0957611d3c565b60ff1983168652602086019350611d3c565b611d1285611cb0565b60005b83811015611d3457815481890152600182019150602081019050611d15565b808801955050505b50505092915050565b60006060820190508181036000830152611d5e81611c8d565b90508181036020830152611d728185611cc5565b90508181036040830152611d868184611cc5565b90509392505050565b7f50726f66696c6520657869737473000000000000000000000000000000000000600082015250565b6000611dc5600e836114ea565b9150611dd082611d8f565b602082019050919050565b60006020820190508181036000830152611df481611db8565b9050919050565b7f55524c204c4f473a200000000000000000000000000000000000000000000000600082015250565b6000611e316009836114ea565b9150611e3c82611dfb565b602082019050919050565b60006060820190508181036000830152611e6081611e24565b90508181036020830152611e7481856118ba565b90508181036040830152611e8881846118ba565b90509392505050565b7f4e6f2050726f66696c6520657869737473000000000000000000000000000000600082015250565b6000611ec76011836114ea565b9150611ed282611e91565b602082019050919050565b60006020820190508181036000830152611ef681611eba565b9050919050565b7f7265747269657665642044494400000000000000000000000000000000000000600082015250565b6000611f33600d836114ea565b9150611f3e82611efd565b602082019050919050565b60006060820190508181036000830152611f6281611f26565b90508181036020830152611f768185611cc5565b90508181036040830152611f8a8184611cc5565b90509392505050565b7f4163636f756e7420616c72656164792065786973747300000000000000000000600082015250565b6000611fc96016836114ea565b9150611fd482611f93565b602082019050919050565b60006020820190508181036000830152611ff881611fbc565b9050919050565b7f726f6f742075736572206372656174656420666f722061646472657373203a20600082015250565b60006120356020836114ea565b915061204082611fff565b602082019050919050565b6000604082019050818103600083015261206481612028565b9050612073602083018461194c565b92915050565b7f4f776e61626c653a206e6577206f776e657220697320746865207a65726f206160008201527f6464726573730000000000000000000000000000000000000000000000000000602082015250565b60006120d56026836114ea565b91506120e082612079565b604082019050919050565b60006020820190508181036000830152612104816120c8565b905091905056fea2646970667358221220a1d1bf15b324fcbe5519b924191087030f68a7679f0063430972f483747f130964736f6c634300080b0033",
  "immutableReferences": {},
  "source": "// SPDX-License-Identifier: MIT\npragma solidity >=0.8.0 <0.9.0;\n\nimport \"../node_modules/openzeppelin-solidity/contracts/access/Ownable.sol\";\nimport \"../node_modules/openzeppelin-solidity/contracts/security/ReentrancyGuard.sol\";\n\ncontract idWallet is Ownable, ReentrancyGuard{\n\n//////******************** CHECK _OWNER VS MSG>SENDER FOR CONTRACT OWNER *************/\n//define struct for the user data. An Eth account can have only one matching profile\n// DID is the profile's URL equivalent\n// stream ID is the URL equivalent for the content document - a deterministic CID for the IPFS data document\n\n  struct Url {\n    //did reference to user profile data\n    // ** solidity notes ** \"did\" is the key reference for the value stored in struct \n    string did;\n    string streamID;\n  }\n\n  // profile data to URL mapping. If a user has offchain profile data, there would be a corresponding\n  // did or stream id stored here\n  // indexed on rootuser account address\n  mapping (address => Url) public profileData;\n\n  // list of all valid accounts held by a root user. \n  // mapping will look like this..\n  // 0xa1...(key - > each additional address) = 0xroo2 (value -> root address)\n  // if only one address exists, both key and value will be root addresses\n\n  mapping (address => address) public validAccounts;\n\n  event UrlLog(string msg, string did, string sid);\n  event accountAddrLog(string msg, address ethAcc);\n  event messg(string msg);\n\n///////////////////////////////////////\n// MODIFIERS\n///////////////////////////////////////\n  modifier validAddress () {\n   //ensure user has a valid profile\n    // require(msg.sender != address(0), 'Invalid caller address');\n    // emit accountAddrLog(\"Invalid caller address\", msg.sender);\n    // if (msg.sender == address(0)) {\n      assert(msg.sender != address(0));\n    _;\n  }\n\n  //check if root user (owner of user profle)\n  modifier onlyRootUser (address ethAcc) {\n    require(validAccounts[msg.sender] == ethAcc, \"Not a root user\");\n    _;\n  }\n\n  //avoid double updates, when user already has profile data\n  //\n  modifier notDupProfile(address ethAcc) {\n    // check if profile data exists\n    Url memory _senderUrl = profileData[msg.sender];\n    //way to test for empty string\n    bytes memory tempSenderDid = bytes(_senderUrl.did);\n    // ensure no prior profile data URL exists for user\n    require (tempSenderDid.length == 0, \"Profile already exists\");\n    _;\n  }\n\n//ensure account doesnt already exist\n  modifier notDupUser(address ethAcc) {\n    require(validAccounts[ethAcc] == address(0), \"Account already exists\");\n    _;\n  }\n\n// add account address as root user. only contract owner allow creation of root user.\n// Called when a userprofile is created for the first time\n// CHANGE : OWNABLE\n  function createRootUser(address ethAcc) external notDupUser(ethAcc) onlyOwner{\n    //set value and key to same address\n    validAccounts[ethAcc] = ethAcc;\n    emit accountAddrLog(\"root user created for address : \", ethAcc);\n  }\n\n//delete root user\n  function deleteRootUser(address ethAcc) external onlyOwner {\n    //set value and key to same address\n    if(validAccounts[ethAcc] != address(0))\n    {\n       delete validAccounts[ethAcc];\n       emit accountAddrLog(\"root user access deleted for account : \", ethAcc);\n    }\n    else\n    {\n        emit accountAddrLog(\"Account does not exist : \", ethAcc);\n    }\n    }\n\n// Check if profile data attached to this user.\n// if yes, returns 'did' for the user\n// if no, returns 'null' values\n\n  function checkUserAccess() external returns (string memory){\n\n      //placeholder for future code--------\n      //check if one of the valid access accounts\n      //if so, retrieve root user ----------\n      //else, assume msg.sender is root user\n      address rootUser = msg.sender;\n      //\n    //check if 'did' exists for this user  \n    Url memory _senderUrl = profileData[rootUser];\n    bytes memory tempSenderDid = bytes(_senderUrl.did);\n    // yes, confirm with msg and log values\n    if (tempSenderDid.length != 0) {\n      emit messg(\"Profile exists\");\n      emit UrlLog(\"URL LOG: \", _senderUrl.did, _senderUrl.streamID);\n    }\n    // no, send error message and log values\n    else {\n      emit messg(\"No Profile exists\");\n    }\n    return _senderUrl.did;\n  }\n\n  string text;\n\n  function setStr(string memory _text) external {\n    text = _text;\n  }\n\n  function getStr() external view returns(string memory) {\n    return text;\n  }\n\n//\n// option to add multiple controlling accounts for a user profile \n// \n  // function addNewAccount() external onlyRootUser(ethAcc) {\n// to be implemented\n//  }\n\n//\n// when a profile is created - the associated DID reference and streamIDs will be stored\n// update happens only when\n// * user address is valid\n// * account has root user access\n// * profile does not exist already - did stored only once per user - cannot be rotated\n\n  function saveUrl(address ethAcc, string memory _did, string memory _streamID) external validAddress onlyRootUser(ethAcc) notDupProfile(ethAcc) returns (bool){\n  // function saveUrl(address ethAcc, string memory _did, string memory _streamID) external validAddress {\n\n// ensure input did string is not zero    \n    bytes memory tempDid = bytes(_did);\n    if (tempDid.length != 0)\n    {\n        profileData[ethAcc].did = _did;\n        profileData[ethAcc].streamID = _streamID;\n        emit UrlLog(\"saved DID on chain\", profileData[ethAcc].did, profileData[ethAcc].streamID);\n        return true;\n    }  \n\n    return false;\n  }\n///    \n\n// future function to delete user entries\n//// here ////\n\n// retrieve profile data URLs\n// returns did and stream ID to caller\n  function retrieveUrl(address ethAcc) external validAddress returns(string memory, string memory)  {\n\n    // require(if this role has admin then allow this function to execute)\n    // valid user asking for a update\n    // require(_requestType == Request.Update);     \n        emit UrlLog(\"retrieved DID\", profileData[ethAcc].did, profileData[ethAcc].streamID);\n        return (profileData[ethAcc].did, profileData[ethAcc].streamID);\n    }\n  \n  fallback() external  {\n    revert(\"Error occured in smart contract processing.. fallback invoked\");\n  }\n\n}\n\n",
  "sourcePath": "/Users/shaamaa/github/blockchain-developer-bootcamp-final-project/contracts/idWallet.sol",
  "compiler": {
    "name": "solc",
    "version": "0.8.11+commit.d7f03943.Emscripten.clang"
  },
  "schemaVersion": "3.4.3",
  "updatedAt": "2022-01-19T02:30:19.381Z",
  "networkType": "ethereum",
  "devdoc": {
    "kind": "dev",
    "methods": {
      "owner()": {
        "details": "Returns the address of the current owner."
      },
      "renounceOwnership()": {
        "details": "Leaves the contract without owner. It will not be possible to call `onlyOwner` functions anymore. Can only be called by the current owner. NOTE: Renouncing ownership will leave the contract without an owner, thereby removing any functionality that is only available to the owner."
      },
      "transferOwnership(address)": {
        "details": "Transfers ownership of the contract to a new account (`newOwner`). Can only be called by the current owner."
      }
    },
    "version": 1
  },
  "userdoc": {
    "kind": "user",
    "methods": {},
    "version": 1
  }
}