{
  "contractName": "x_original",
  "abi": [
    {
      "anonymous": false,
      "inputs": [
        {
          "indexed": false,
          "internalType": "string",
          "name": "msg",
          "type": "string"
        }
      ],
      "name": "Log",
      "type": "event"
    },
    {
      "anonymous": false,
      "inputs": [
        {
          "indexed": false,
          "internalType": "string",
          "name": "did",
          "type": "string"
        }
      ],
      "name": "Profile",
      "type": "event"
    },
    {
      "inputs": [],
      "name": "basicProfile",
      "outputs": [
        {
          "internalType": "string",
          "name": "did",
          "type": "string"
        },
        {
          "internalType": "string",
          "name": "fname",
          "type": "string"
        },
        {
          "internalType": "uint256",
          "name": "age",
          "type": "uint256"
        },
        {
          "internalType": "uint256",
          "name": "phone",
          "type": "uint256"
        }
      ],
      "stateMutability": "view",
      "type": "function"
    },
    {
      "inputs": [
        {
          "internalType": "address",
          "name": "",
          "type": "address"
        }
      ],
      "name": "userProfile",
      "outputs": [
        {
          "internalType": "string",
          "name": "did",
          "type": "string"
        },
        {
          "internalType": "string",
          "name": "fname",
          "type": "string"
        },
        {
          "internalType": "uint256",
          "name": "age",
          "type": "uint256"
        },
        {
          "internalType": "uint256",
          "name": "phone",
          "type": "uint256"
        }
      ],
      "stateMutability": "view",
      "type": "function"
    },
    {
      "inputs": [
        {
          "internalType": "uint256",
          "name": "x",
          "type": "uint256"
        }
      ],
      "name": "set",
      "outputs": [],
      "stateMutability": "nonpayable",
      "type": "function"
    },
    {
      "inputs": [],
      "name": "get",
      "outputs": [
        {
          "internalType": "uint256",
          "name": "",
          "type": "uint256"
        }
      ],
      "stateMutability": "view",
      "type": "function"
    }
  ],
  "bytecode": "0x608060405234801561001057600080fd5b50610601806100206000396000f3fe608060405234801561001057600080fd5b506004361061004c5760003560e01c80631c8e89621461005157806360fe47b1146100845780636d4ce63c146100a0578063e00f3b1f146100be575b600080fd5b61006b600480360381019061006691906103c4565b6100df565b60405161007b94939291906104a3565b60405180910390f35b61009e60048036038101906100999190610522565b61021f565b005b6100a8610229565b6040516100b5919061054f565b60405180910390f35b6100c6610233565b6040516100d694939291906104a3565b60405180910390f35b600560205280600052604060002060009150905080600001805461010290610599565b80601f016020809104026020016040519081016040528092919081815260200182805461012e90610599565b801561017b5780601f106101505761010080835404028352916020019161017b565b820191906000526020600020905b81548152906001019060200180831161015e57829003601f168201915b50505050509080600101805461019090610599565b80601f01602080910402602001604051908101604052809291908181526020018280546101bc90610599565b80156102095780601f106101de57610100808354040283529160200191610209565b820191906000526020600020905b8154815290600101906020018083116101ec57829003601f168201915b5050505050908060020154908060030154905084565b8060068190555050565b6000600654905090565b600080600001805461024490610599565b80601f016020809104026020016040519081016040528092919081815260200182805461027090610599565b80156102bd5780601f10610292576101008083540402835291602001916102bd565b820191906000526020600020905b8154815290600101906020018083116102a057829003601f168201915b5050505050908060010180546102d290610599565b80601f01602080910402602001604051908101604052809291908181526020018280546102fe90610599565b801561034b5780601f106103205761010080835404028352916020019161034b565b820191906000526020600020905b81548152906001019060200180831161032e57829003601f168201915b5050505050908060020154908060030154905084565b600080fd5b600073ffffffffffffffffffffffffffffffffffffffff82169050919050565b600061039182610366565b9050919050565b6103a181610386565b81146103ac57600080fd5b50565b6000813590506103be81610398565b92915050565b6000602082840312156103da576103d9610361565b5b60006103e8848285016103af565b91505092915050565b600081519050919050565b600082825260208201905092915050565b60005b8381101561042b578082015181840152602081019050610410565b8381111561043a576000848401525b50505050565b6000601f19601f8301169050919050565b600061045c826103f1565b61046681856103fc565b935061047681856020860161040d565b61047f81610440565b840191505092915050565b6000819050919050565b61049d8161048a565b82525050565b600060808201905081810360008301526104bd8187610451565b905081810360208301526104d18186610451565b90506104e06040830185610494565b6104ed6060830184610494565b95945050505050565b6104ff8161048a565b811461050a57600080fd5b50565b60008135905061051c816104f6565b92915050565b60006020828403121561053857610537610361565b5b60006105468482850161050d565b91505092915050565b60006020820190506105646000830184610494565b92915050565b7f4e487b7100000000000000000000000000000000000000000000000000000000600052602260045260246000fd5b600060028204905060018216806105b157607f821691505b602082108114156105c5576105c461056a565b5b5091905056fea2646970667358221220902bda359f8de2a92d7f4f645618be4451a4e24d8bc73db6745f71600f09dfbd64736f6c634300080b0033",
  "immutableReferences": {},
  "source": "// SPDX-License-Identifier: MIT\npragma solidity >=0.4.22 <0.9.0;\n\n// import \"../node_modules/@openzeppelin/contracts/access/Ownable.sol\";\n\ncontract x_original {\n\n//define struct for the user data\n  struct BasicProfile {\n    //did reference to user profile data\n    string did;\n    string fname;\n    //string lname;\n    uint age;\n    //string homeAddress;\n    uint phone;\n    //string email;\n  }\n\n//define an array of users\n  BasicProfile public basicProfile;\n\n  // A person can have multiple ETH accounts, but only rootuser account.\n  // list of all friendly accounts linked a profile\n  // MAPPING A PROXY FOR DIDs -- needs more learning to to be implement, pushed for next version\n\n  mapping (address => address) rootUser;\n  //  root user to user profile mapping \n  mapping (address => BasicProfile) public userProfile;\n\n// // define enums for request type - create, update, reset\n//   enum Request {\n//        Update,\n//        Read\n//     }\n\n\n  modifier validUser () {\n   //ensure user has a valid profile\n   //check nested mapping to see if valid user for this profile\n    // caller has a root user address attached to their address\n    require(msg.sender != address(0), 'Invalid dude');\n    _;\n  }\n\n  /////////////////////////////////\n  ////// SAMPLE CODE FOR TESTING FROM SIMPLE STORAGE\n  ////////////////////////////////\n  uint storedData;\n\n  function set(uint x) public {\n    storedData = x;\n  }\n\n  function get() public view returns (uint) {\n    return storedData;\n  }\n\n  // fallback() external {\n  //     emit Log (\"Something went wrong\");\n  // }\n\n  event Log(string msg);\n  event Profile(string did);\n\n// //constructor init values \n// //   constructor() public {\n// // nothing at the moment\n//   // userProfile[msg.sender] = address[0];\n// //   }\n\n//   function adminTasks() public onlyOwner {\n//     //some potential tasks for admin\n//     // 1. transfer ownership\n//     // 2. renounce ownership\n//   }\n// // event log and emit when user data successfully updated\n\n// //////////////////////////////////////////////////////////\n// //// CHECK IF WE CAN IMPLEMENT MULTI SIG WALLETS HERE\n// /////////////////////////////////////////////////////////\n//   function mapToRoot (address _userAddress) public {\n//    //ensure user has a valid profile\n//    // Account requestor (msg.sender) should be the root user\n//     if(rootUser[msg.sender] == msg.sender) {\n//       // map account to root user\n//         rootUser[_userAddress] = msg.sender; \n//     }\n//   }\n//   // string retMsg; \n\n//   // function validateAccount() external view validUser() returns (string calldata retMsg) {\n//   //   retMsg = \"OK Valid\";\n//   //   // return (retMsg);\n//   // }\n\n//   // function setupRootUser(address userAddress) public onlyOwner validUser(){\n//     // Root user access is granted by contract owner, if one doesnt exist\n//   function setupRootUser(address userAddress) public onlyOwner returns (string memory) {\n//     string memory retString;\n//     if (rootUser[userAddress] != address(0))\n//     {\n//         rootUser[userAddress] = userAddress;\n//         retString = \"Added OK\";\n//     }\n//     // verify root user already has an entry\n//     else if(rootUser[userAddress] == userAddress)\n//     {\n//         emit Log(\"Error - User exists\");\n//         retString = \"Error - User exists\";\n//     }\n//     // For safety log invalid update attempts\n//     else {\n//         emit Log(\"Error - Invalid access request\");\n//         retString = \"Error - Invalid access request\";\n//     }\n//     return retString;\n//   }\n\n// // For a valid root user, update their profile details\n//   // function updateProfile(uint _age, uint _phone, string memory _name) payable public validUser(msg.sender) {\n\n//   function updateProfile(uint _age, uint _phone, string memory _name) payable public {\n\n//     // require(if this role has admin then allow this function to execute)\n//     // valid user asking for a update\n//     // require(_requestType == Request.Update);        \n//         userProfile[rootUser[msg.sender]].fname = _name;\n//         userProfile[rootUser[msg.sender]].age = _age;\n//         userProfile[rootUser[msg.sender]].phone = _phone;\n\n//         emit Log(\"Updated Profile\");\n//     }\n\n// // Retrieve user profile data \n// // coding best practice: not receommended to return an array from a function.. Cos it can get called \n// // repeatedly and costs gas.\n//   function readProfile() external validUser() view returns(string memory _name, uint _age, uint _phone){\n//             _name = userProfile[rootUser[msg.sender]].fname;\n//             _age = userProfile[rootUser[msg.sender]].age;\n//             _phone = userProfile[rootUser[msg.sender]].phone;\n//             // log output for testing\n//             // emit Profile(_age, _phone, _name);\n//   }\n\n  // function saveDID(address ethAcc, string memory _did) external validUser(){\n\n  //   // require(if this role has admin then allow this function to execute)\n  //   // valid user asking for a update\n  //   // require(_requestType == Request.Update);        \n  //       userProfile[ethAcc].did = _did;\n  //       // userProfile[ethAcc].xdid = _xdid;\n  //       emit Log(\"saved DID on chain\");\n  //   }\n\n  // function retrieveDID(address ethAcc) external validUser() returns(string memory _did) {\n\n  //   // require(if this role has admin then allow this function to execute)\n  //   // valid user asking for a update\n  //   // require(_requestType == Request.Update);        \n  //       _did = userProfile[ethAcc].did;\n  //       // _xdid = userProfile[ethAcc].xdid;\n  //       emit Log(\"retrieved DID\");\n  //   }\n\n}\n\n  ",
  "sourcePath": "/Users/shaamaa/github/blockchain-developer-bootcamp-final-project/contracts/x_original.sol",
  "compiler": {
    "name": "solc",
    "version": "0.8.11+commit.d7f03943.Emscripten.clang"
  },
  "schemaVersion": "3.4.3",
  "updatedAt": "2021-12-24T20:23:57.259Z",
  "devdoc": {
    "kind": "dev",
    "methods": {},
    "version": 1
  },
  "userdoc": {
    "kind": "user",
    "methods": {},
    "version": 1
  }
}